:020000040800F2
:1000000000000220010C0008FD0A0008050B000892
:100010000D0B0008150B00081D0B00080000000068
:10002000000000000000000000000000250B000898
:10003000330B000800000000410B00084F0B0008C4
:10004000510C0008510C0008510C0008510C00081C
:10005000510C0008510C0008510C0008510C00080C
:10006000510C0008510C0008510C0008510C0008FC
:10007000510C0008510C0008510C00085D0B0008E1
:10008000510C0008510C0008510C0008510C0008DC
:10009000510C0008510C0008510C0008510C0008CC
:1000A000510C0008510C0008510C0008510C0008BC
:1000B000510C0008510C0008510C0008510C0008AC
:1000C000510C0008510C0008510C0008510C00089C
:1000D000510C0008510C0008510C0008510C00088C
:1000E000510C0008510C0008510C0008510C00087C
:1000F000510C0008510C0008510C0008510C00086C
:10010000510C0008510C0008510C0008510C00085B
:10011000510C0008510C0008510C0008510C00084B
:10012000510C0008510C0008510C0008510C00083B
:10013000510C0008510C0008510C0008510C00082B
:10014000510C0008510C0008510C0008510C00081B
:10015000510C0008510C0008510C0008510C00080B
:10016000510C0008510C0008510C0008510C0008FB
:10017000510C0008510C0008510C00080000000050
:08018000510C0008510C0008AD
:1001880010B5054C237833B9044B13B10448AFF3C9
:1001980000800123237010BD6000002000000000D3
:1001A8009445000808B5034B1BB103490348AFF356
:1001B800008008BD0000000064000020944500088D
:1001C80053B94AB9002908BF00281CBF4FF0FF31B6
:1001D8004FF0FF3000F06AB9ADF1080C6DE904CEBC
:1001E80000F006F8DDF804E0DDE9022304B070470A
:1001F8002DE9F047089D0C46002B4ED194468C45BE
:100208008646B2FA82F262D94AB1C2F1200391401D
:1002180020FA03F30CFA02FC194300FA02FE4FEA33
:100228001C471FFA8CF6B1FBF7F44FEA1E4307FB95
:10023800141143EA014304FB06F199420AD91CEB65
:10024800030304F1FF3080F01281994240F20F81DC
:10025800023C6344591A1FFA8EF3B1FBF7F007FB0F
:10026800101143EA014300FB06F69E420AD91CEB33
:10027800030300F1FF3180F0FC809E4240F2F980D8
:10028800634402389B1B40EA044000211DB1D3405F
:100298000022C5E90032BDE8F0878B4205D90DB1CF
:1002A800C5E9000100210846F5E7B3FA83F1002902
:1002B80046D1A34202D39042C0F0F080861A64EB84
:1002C80003030120002DE6D0C5E90063E3E7002A17
:1002D80040F09080A1EB0C044FEA1C481FFA8CF701
:1002E8000121B4FBF8F64FEA1E4308FB164443EA23
:1002F800044307FB06F0984208D91CEB030306F1F8
:10030800FF3402D2984200F2CD8026461C1A1FFA0A
:100318008EF3B4FBF8F008FB104443EA044300FBF7
:1003280007F79F4208D91CEB030300F1FF3402D200
:100338009F4200F2B0802046DB1B40EA0640A5E75A
:10034800C1F120068B4022FA06F71F4320FA06FC6B
:1003580004FA01F343EA0C03F44000FA01F8380CFC
:100368004FEA1349B4FBF0FE1FFA87FC00FB1E445A
:1003780049EA04440EFB0CF9A14502FA01F20AD934
:100388003C190EF1FF3A80F08480A14540F281804B
:10039800AEF1020E3C44A4EB09041FFA83F9B4FB46
:1003A800F0F300FB134449EA044403FB0CFCA445A6
:1003B80007D93C1903F1FF3067D2A44565D9023B40
:1003C8003C4443EA0E40A0FB0293A4EB0C049C427D
:1003D800CE469C4651D34ED055B1B8EB0E0364EBD4
:1003E8000C0404FA06F6CB401E43CC40C5E9006471
:1003F800002150E7C2F1200320FA03F10CFA02FCB5
:1004080024FA03F394400C434FEA1C4800FA02FE16
:100418001FFA8CF7B3FBF8F008FB1031230C43EA02
:10042800014300FB07F1994208D91CEB030300F1D3
:10043800FF362CD299422AD9023863445B1AA4B2F7
:10044800B3FBF8F108FB113344EA034401FB07F35B
:10045800A34208D91CEB040401F1FF3613D2A342CE
:1004680011D902396444E41A41EA004139E70446E3
:10047800F0E6084606E7C845AED2B9EB020E63EBD4
:10048800070C0138A8E73146EDE7034699E73046FF
:10049800D4E7D6467FE7634402384DE7064623464D
:1004A80008460FE7023E634430E700BF704700BFCD
:1004B80080B582B000AF78607B681B68054A9342BC
:1004C80003D10549054803F079FC00BF0837BD464C
:1004D80080BD00BF00040040740100206C010020B2
:1004E80080B582B000AF78607B681B68054A93428C
:1004F80003D10549054803F061FC00BF0837BD4634
:1005080080BD00BF00080040A40100206C0100204D
:1005180080B586B000AF00F099FB00F06BF800F0F2
:10052800AFF900F08DF900F015F900F0C1F80023DB
:100538003B602B4B1B6B2A4A43F001031363284B88
:100548001B6B03F001033B603B688C2300222549A9
:10055800254803F037FD0321234803F07BFD23489A
:1005680000F02AFC0023FB80BB1D012219461F480E
:1005780000F080FD0023FB604FF47A737B61002359
:100588003B610023BB601A4B1B68FB60FB68B3F53B
:10059800967F03D2144803F0B9FC1FE0134800F01B
:1005A8000BFC0021114800F0D9FC104800F072FE45
:1005B80003469BB2FB80FB889BB219460A4803F0AE
:1005C8005BFDFA687B699A4205D300233B61FB68AF
:1005D80003F57A737B613B6901333B61D3E700BF65
:1005E80000380240C40000206C0100207C0000207C
:1005F800F001002080B594B000AF07F1200330224D
:100608000021184603F070FF07F10C0300221A605E
:100618005A609A60DA601A610023BB60224B1B6C37
:10062800214A43F0805313641F4B1B6C03F0805323
:10063800BB60BB6800237B601C4B1B681B4A43F4F0
:1006480080431360194B1B6803F480437B607B680D
:1006580002233B620123FB6210233B630023BB633D
:1006680007F12003184601F019FF0346002B01D0BB
:1006780000F038F90F23FB6000233B6100237B6106
:100688000023BB610023FB6107F10C03002118461E
:1006980002F07CF90346002B01D000F023F900BFDB
:1006A8005037BD4680BD00BF003802400070004092
:1006B80080B584B000AF3B4600221A605A609A6049
:1006C800DA60214B214A1A601F4B00225A601E4BE8
:1006D80000229A601C4B00221A611B4B00221A76DA
:1006E800194B002283F82020174B0022DA62164BA0
:1006F800174A9A62144B0022DA60134B0122DA611E
:10070800114B002283F830200F4B01225A610E480A
:1007180000F00EFB0346002B01D000F0E3F80023A5
:100728003B6001237B600123BB603B4619460648BA
:1007380000F0DCFD0346002B01D000F0D3F800BF29
:100748001037BD4680BD00BF7C000020002001405E
:100758000100000F80B58EB000AF07F1280300221A
:100768001A605A609A60DA6007F1200300221A6062
:100778005A603B1D00221A605A609A60DA601A615A
:100788005A619A612C4B2D4A1A602B4B00225A60F1
:10079800294B00229A60284B1422DA60264B00224B
:1007A8001A61254B00229A61234802F09BFA0346FE
:1007B800002B01D000F096F84FF48053BB6207F18C
:1007C800280319461C4802F0BFFD0346002B01D040
:1007D80000F088F8184802F0D4FA0346002B01D03C
:1007E80000F080F800233B6200237B6207F12003BE
:1007F8001946114803F066FA0346002B01D000F0B1
:1008080071F860237B600023BB600023FB6000233A
:100818007B613B1D00221946074802F0D3FC0346C2
:10082800002B01D000F05EF8034800F029F900BF62
:100838003837BD4680BD00BFC4000020000400401A
:1008480080B582B000AF00237B600C4B1B6B0B4A5A
:1008580043F400131363094B1B6B03F400137B6011
:100868007B68002200210F2001F0BBF80F2001F067
:10087800D4F800BF0837BD4680BD00BF003802402D
:1008880080B586B000AF3B1D00221A605A609A609E
:10089800DA601A6100233B60104B1B6B0F4A43F070
:1008A800010313630D4B1B6B03F001033B603B68B3
:1008B8000022A0210A4801F0D7FDA0237B60012374
:1008C800BB600023FB6000233B613B1D19460448C5
:1008D80001F02EFC00BF1837BD4680BD003802402D
:1008E8000000024080B400AF72B600BF00BFFDE751
:1008F80080B483B000AF00237B60104B5B6C0F4A61
:1009080043F4804353640D4B5B6C03F480437B607A
:100918007B6800233B60094B1B6C084A43F08053FB
:100928001364064B1B6C03F080533B603B6800BFAD
:100938000C37BD465DF8047B704700BF00380240A5
:1009480080B58AB000AF786007F1140300221A60FE
:100958005A609A60DA601A617B681B68174A93428A
:1009680027D100233B61164B5B6C154A43F4807317
:100978005364134B5B6C03F480733B613B69002346
:10098800FB600F4B1B6B0E4A43F0010313630C4BC8
:100998001B6B03F00103FB60FB6801237B610323EE
:1009A800BB610023FB6107F114031946054801F0F8
:1009B800BFFB00BF2837BD4680BD00BF00200140F7
:1009C800003802400000024080B584B000AF786073
:1009D8007B681B68264A934245D10023FB60254B60
:1009E8001B6C244A43F002031364224B1B6C03F074
:1009F8000203FB60FB68204B204A1A601E4B4FF035
:100A080020625A601C4B40229A601B4B0022DA601D
:100A1800194B4FF480621A61174B4FF400625A6108
:100A2800154B4FF400529A61134B4FF48072DA6100
:100A3800114B4FF400321A620F4B00225A620E48D3
:100A480001F006F80346002B01D0FFF74BFF7B6847
:100A5800094A5A62084A7B6893637B68064A9A6324
:100A6800054A7B68936300BF1037BD4680BD00BF51
:100A780000040040003802400C0100207060024071
:100A880080B588B000AF786007F10C0300221A60C7
:100A98005A609A60DA601A617B681B68124A93424E
:100AA8001DD10023BB60114B1B6B104A43F001039F
:100AB80013630E4B1B6B03F00103BB60BB68402341
:100AC800FB6002233B6100237B610023BB6102239F
:100AD800FB6107F10C031946054801F029FB00BF2B
:100AE8002037BD4680BD00BF0004004000380240EA
:100AF8000000024080B400AF00BFFDE780B400AF43
:100B080000BFFDE780B400AF00BFFDE780B400AFD1
:100B180000BFFDE780B400AF00BFFDE780B400AFC1
:100B280000BFBD465DF8047B704780B400AF00BFCE
:100B3800BD465DF8047B704780B400AF00BFBD467A
:100B48005DF8047B704780B500AF00F0D1F800BFB6
:100B580080BD000080B500AF024801F07FF800BFFB
:100B680080BD00BF0C01002080B586B000AF786062
:100B7800144A154BD31A7B617B693B61134B1B6885
:100B8800002B02D1114B124A1A60104B1A687B686D
:100B980013443A699A4207D203F0BEFC03460C227A
:100BA8001A604FF0FF3309E0084B1B68FB60074BE6
:100BB8001A687B681344054A1360FB68184618379F
:100BC800BD4680BD0000022000040000EC010020AA
:100BD8005003002080B400AF064BD3F88830054A94
:100BE80043F47003C2F8883000BFBD465DF8047B4B
:100BF800704700BF00ED00E0DFF834D0FFF7EAFFF0
:100C08000C480D490D4A002302E0D458C45004335F
:100C1800C4188C42F9D30A4A0A4C002301E0136035
:100C28000432A242FBD303F07DFCFFF771FC70474E
:100C3800000002200000002060000020205600086C
:100C48006000002050030020FEE7000080B500AFE0
:100C58000E4B1B680D4A43F4007313600B4B1B6863
:100C68000A4A43F480631360084B1B68074A43F43D
:100C780080731360032000F0A9FE0F2000F008F82D
:100C8800FFF736FE0023184680BD00BF003C024037
:100C980080B582B000AF7860124B1A68124B1B788F
:100CA80019464FF47A73B3FBF1F3B2FBF3F318462A
:100CB80000F0C1FE0346002B01D001230EE07B6843
:100CC8000F2B0AD8002279684FF0FF3000F089FE18
:100CD800064A7B681360002300E0012318460837A2
:100CE800BD4680BD00000020080000200400002050
:100CF80080B400AF064B1B781A46064B1B6813449A
:100D0800044A136000BFBD465DF8047B704700BF0E
:100D180008000020F001002080B400AF034B1B68DE
:100D28001846BD465DF8047B704700BFF0010020FF
:100D380080B584B000AF78600023FB737B68002B1C
:100D480001D1012333E07B681B6C002B09D1786843
:100D5800FFF7F6FD7B6800225A647B68002283F85F
:100D68003C207B681B6C03F01003002B18D17B68B8
:100D78001B6C23F4885323F0020343F002027B68C0
:100D88001A64786800F0D4FB7B6800225A647B6898
:100D98001B6C23F0030343F001027B681A6401E033
:100DA8000123FB737B68002283F83C20FB7B1846F9
:100DB8001037BD4680BD000080B485B000AF7860B4
:100DC8000023BB607B6893F83C30012B01D10223E0
:100DD800B2E07B68012283F83C207B681B689B6833
:100DE80003F00103012B18D07B681B689A687B68A5
:100DF8001B6842F001029A60524B1B68524AA2FBE0
:100E080003239A0C13465B001344BB6002E0BB68E3
:100E1800013BBB60BB68002BF9D17B681B689B68F2
:100E280003F00103012B7AD17B681B6C23F4E06388
:100E380023F0010343F480727B681A647B681B68A3
:100E48005B6803F48063002B07D07B681B6C23F47A
:100E5800405343F480527B681A647B681B6C03F42C
:100E68008053B3F5805F06D17B685B6C23F0060284
:100E78007B685A6402E07B6800225A647B6800221F
:100E880083F83C20314BFB607B681B686FF02202C3
:100E98001A60FB685B6803F01F03002B2AD17B688C
:100EA8001B682B4A934215D07B681B68294A9342DA
:100EB80005D1264B5B6803F01F03002B0AD07B6823
:100EC8001B68254A934236D1204B5B6803F0100318
:100ED800002B30D17B681B689B6803F04053002BC4
:100EE80029D17B681B689A687B681B6842F080423E
:100EF8009A6020E07B681B68154A93421BD17B6887
:100F08001B689B6803F04053002B14D17B681B6857
:100F18009A687B681B6842F080429A600BE07B68A5
:100F28001B6C43F010027B681A647B685B6C43F0AF
:100F380001027B685A64002318461437BD465DF8E1
:100F4800047B70470000002083DE1B430023014020
:100F580000200140002101400022014080B584B0FA
:100F680000AF786039600023FB607B681B689B6872
:100F780003F48063B3F5806F13D17B681B689B68AB
:100F880003F48073B3F5807F0BD17B681B6C43F04F
:100F980020027B681A647B68002283F83C200123C6
:100FA80063E0FFF7B9FEF86021E03B68B3F1FF3F6B
:100FB8001DD03B68002B07D0FFF7AEFE0246FB684A
:100FC800D31A3A689A4212D27B681B681B6803F0EE
:100FD8000203022B0BD07B681B6C43F004027B6876
:100FE8001A647B68002283F83C2003233DE07B6879
:100FF8001B681B6803F00203022BD6D17B681B68B1
:101008006FF012021A607B681B6C43F400727B68F5
:101018001A647B681B689B6803F04053002B23D13C
:101028007B681B7E002B1FD17B681B68DB6A03F47F
:101038007003002B06D07B681B689B6803F48063F1
:10104800002B11D17B681B6C23F480727B681A64B7
:101058007B681B6C03F48053002B05D17B681B6CE9
:1010680043F001027B681A64002318461037BD4616
:1010780080BD000080B586B000AFF860B9607A60C6
:1010880000233B61FB6893F83C30012B01D102231C
:10109800E9E0FB68012283F83C20FB681B689B6839
:1010A80003F00103012B18D0FB681B689A68FB68E2
:1010B8001B6842F001029A606D4B1B686D4AA2FBE7
:1010C80003239A0C13465B0013443B6102E03B691F
:1010D800013B3B613B69002BF9D1FB681B689B68AE
:1010E80003F48073B3F5807F07D1FB681B689A68A7
:1010F800FB681B6822F480729A60FB681B689B6817
:1011080003F00103012B40F0A180FB681B6C23F462
:10111800E06323F0010343F48072FB681A64FB6800
:101128001B685B6803F48063002B07D0FB681B6CAB
:1011380023F4405343F48052FB681A64FB681B6C29
:1011480003F48053B3F5805F06D1FB685B6C23F032
:101158000602FB685A6402E0FB6800225A64FB68D6
:10116800002283F83C20444B7B61FB689B6B434A1D
:10117800DA63FB689B6B424A1A64FB689B6B414AC3
:10118800DA64FB681B686FF022021A60FB681B6850
:101198005A68FB681B6842F080625A60FB681B68EB
:1011A8009A68FB681B6842F480729A60FB68986BC7
:1011B800FB681B684C331946BA687B6800F0F6FC7C
:1011C8007B695B6803F01F03002B2AD1FB681B684F
:1011D8002D4A934215D0FB681B682C4A934205D1CF
:1011E800254B5B6803F01F03002B0AD0FB681B68C4
:1011F800274A934236D1204B5B6803F01003002B3B
:1012080030D1FB681B689B6803F04053002B29D141
:10121800FB681B689A68FB681B6842F080429A600A
:1012280020E0FB681B68184A93421BD1FB681B68C7
:101238009B6803F04053002B14D1FB681B689A6825
:10124800FB681B6842F080429A600BE0FB681B6CED
:1012580043F01002FB681A64FB685B6C43F0010200
:10126800FB685A64002318461837BD4680BD00BF86
:101278000000002083DE1B430023014031170008D3
:10128800EB17000807180008002001400021014062
:101298000022014080B483B000AF78607B681B688F
:1012A800DB6C18460C37BD465DF8047B704780B48C
:1012B80083B000AF786000BF0C37BD465DF8047B93
:1012C800704780B483B000AF786000BF0C37BD466C
:1012D8005DF8047B704780B483B000AF786000BFCE
:1012E8000C37BD465DF8047B7047000080B485B0BC
:1012F80000AF786039600023BB607B6893F83C30AE
:10130800012B01D1022305E17B68012283F83C20EF
:101318003B681B68092B25D97B681B68D9683B6823
:101328001B689BB21A4613465B0013441E3B0722F8
:1013380002FA03F3DA437B681B680A40DA607B68C9
:101348001B68D9683B689A683B681B689BB218465B
:1013580003465B0003441E3B9A407B681B680A43B4
:10136800DA6022E07B681B6819693B681B689BB2DE
:101378001A4613465B001344072202FA03F3DA43C2
:101388007B681B680A401A617B681B6819693B689F
:101398009A683B681B689BB2184603465B00034487
:1013A8009A407B681B680A431A613B685B68062B96
:1013B80024D87B681B68596B3B685A6813469B00A6
:1013C8001344053B1F2202FA03F3DA437B681B68C8
:1013D8000A405A637B681B68596B3B681B689BB261
:1013E80018463B685A6813469B001344053B00FAAD
:1013F80003F27B681B680A435A634CE03B685B68EE
:101408000C2B24D87B681B68196B3B685A681346F9
:101418009B001344233B1F2202FA03F3DA437B6841
:101428001B680A401A637B681B68196B3B681B685A
:101438009BB218463B685A6813469B001344233BEB
:1014480000FA03F27B681B680A431A6323E07B688F
:101458001B68D96A3B685A6813469B001344413B92
:101468001F2202FA03F3DA437B681B680A40DA6238
:101478007B681B68D96A3B681B689BB218463B6847
:101488005A6813469B001344413B00FA03F27B68F9
:101498001B680A43DA62224BFB607B681B68214A9F
:1014A800934209D13B681B68122B05D1FB685B6826
:1014B80043F48002FB685A607B681B68194A9342B0
:1014C80023D13B681B68102B03D03B681B68112B8A
:1014D8001BD1FB685B6843F40002FB685A603B68F9
:1014E8001B68102B11D1104B1B68104AA2FB032359
:1014F8009A0C13469B0013445B00BB6002E0BB6878
:10150800013BBB60BB68002BF9D17B68002283F8E4
:101518003C20002318461437BD465DF8047B70470D
:1015280000230140002001400000002083DE1B430F
:1015380080B485B000AF7860794BFB60FB685B686E
:1015480023F44032FB685A60FB685A687B685B6822
:101558001A43FB685A607B681B685A687B681B687B
:1015680022F480725A607B681B6859687B681B6923
:101578001A027B681B680A435A607B681B685A68B2
:101588007B681B6822F040725A607B681B68596848
:101598007B689A687B681B680A435A607B681B688B
:1015A8009A687B681B6822F400629A607B681B68F3
:1015B80099687B68DA687B681B680A439A607B686D
:1015C8009B6A584A934222D07B681B689A687B685A
:1015D8001B6822F070629A607B681B6899687B6858
:1015E8009A6A7B681B680A439A607B681B689A68DA
:1015F8007B681B6822F040529A607B681B68996878
:101608007B68DA6A7B681B680A439A600FE07B682C
:101618001B689A687B681B6822F070629A607B6816
:101628001B689A687B681B6822F040529A607B6846
:101638001B689A687B681B6822F002029A607B68C4
:101648001B6899687B681B7E5A007B681B680A4385
:101658009A607B6893F82030002B1BD07B681B684E
:101668005A687B681B6842F400625A607B681B6892
:101678005A687B681B6822F460425A607B681B6862
:1016880059687B685B6A013B5A037B681B680A439D
:101698005A6007E07B681B685A687B681B6822F4FD
:1016A80000625A607B681B68DA6A7B681B6822F4F0
:1016B8007002DA627B681B68D96A7B68DB69013B68
:1016C8001A057B681B680A43DA627B681B689A689C
:1016D8007B681B6822F400729A607B681B689968B3
:1016E8007B6893F830305A027B681B680A439A601B
:1016F8007B681B689A687B681B6822F480629A6022
:101708007B681B6899687B685B699A027B681B68C1
:101718000A439A6000BF1437BD465DF8047B7047E2
:10172800002301400100000F80B584B000AF78604D
:101738007B689B6BFB60FB681B6C03F05003002B02
:101748003CD1FB681B6C43F40072FB681A64FB68AD
:101758001B689B6803F04053002B2BD1FB681B7E52
:10176800002B27D1FB681B68DB6A03F47003002B8E
:1017780006D0FB681B689B6803F48063002B19D1B3
:10178800FB681B685A68FB681B6822F020025A60D5
:10179800FB681B6C23F48072FB681A64FB681B6C83
:1017A80003F48053002B05D1FB681B6C43F0010246
:1017B800FB681A64F868FFF77AFD0EE0FB681B6C9B
:1017C80003F01003002B03D0F868FFF784FD04E052
:1017D800FB689B6BDB6C7868984700BF1037BD4689
:1017E80080BD80B584B000AF78607B689B6BFB6080
:1017F800F868FFF766FD00BF1037BD4680BD80B5AD
:1018080084B000AF78607B689B6BFB60FB6840220C
:101818001A64FB685B6C43F00402FB685A64F8685E
:10182800FFF759FD00BF1037BD4680BD80B485B0B5
:1018380000AF78607B6803F00703FB600C4BDB6844
:10184800BB60BA684FF6FF031340BB60FB681A021F
:10185800BB68134343F0BF6343F40033BB60044ADF
:10186800BB68D36000BF1437BD465DF8047B704782
:1018780000ED00E080B400AF044BDB681B0A03F006
:1018880007031846BD465DF8047B704700ED00E08D
:1018980080B483B000AF0346FB7197F90730002B83
:1018A8000BDBFB7903F01F02074997F907305B0947
:1018B800012000FA02F241F8232000BF0C37BD4690
:1018C8005DF8047B704700BF00E100E080B483B09E
:1018D80000AF03463960FB7197F90730002B0ADB2C
:1018E8003B68DAB20C4997F907301201D2B20B44BF
:1018F80083F800230AE03B68DAB20849FB7903F071
:101908000F03043B1201D2B20B441A7600BF0C3706
:10191800BD465DF8047B704700E100E000ED00E0A3
:1019280080B489B000AFF860B9607A60FB6803F0F2
:101938000703FB61FB69C3F10703042B28BF0423DA
:10194800BB61FB690433062B02D9FB69033B00E04A
:1019580000237B614FF0FF32BB6902FA03F3DA43DD
:10196800BB681A407B699A404FF0FF317B6901FAE6
:1019780003F3D9437B680B40134318462437BD460D
:101988005DF8047B7047000080B582B000AF7860D6
:101998007B68013BB3F1807F01D301230FE00A4A42
:1019A8007B68013B53600F214FF0FF30FFF78EFF3C
:1019B800054B00229A60044B07221A600023184640
:1019C8000837BD4680BD00BF10E000E080B582B09A
:1019D80000AF78607868FFF729FF00BF0837BD4679
:1019E80080BD80B586B000AF0346B9607A60FB73EE
:1019F80000237B61FFF73EFF78617A68B9687869F0
:101A0800FFF78EFF024697F90F3011461846FFF789
:101A18005DFF00BF1837BD4680BD80B582B000AFFE
:101A28000346FB7197F907301846FFF731FF00BFEF
:101A38000837BD4680BD80B582B000AF7860786851
:101A4800FFF7A2FF034618460837BD4680BD0000D1
:101A580080B586B000AF786000237B61FFF75CF942
:101A680038617B68002B01D1012399E07B68022251
:101A780083F835207B68002283F834207B681B6854
:101A88001A687B681B6822F001021A600FE0FFF7F2
:101A980043F902463B69D31A052B08D97B682022F3
:101AA8005A657B68032283F83520032378E07B6836
:101AB8001B681B6803F00103002BE8D17B681B68D7
:101AC8001B687B617A69384B13407B617B685A6875
:101AD8007B689B681A437B68DB681A437B681B69D1
:101AE8001A437B685B691A437B689B691A437B6866
:101AF800DB691A437B681B6A13437A6913437B616A
:101B08007B685B6A042B07D17B68DA6A7B681B6B8E
:101B180013437A6913437B617B681B687A691A608F
:101B28007B681B685B697B617B6923F007037B61CA
:101B38007B685B6A7A6913437B617B685B6A042B09
:101B480017D17B689B6A7A6913437B617B68DB6A80
:101B5800002B0ED0786800F06FFA0346002B08D0EF
:101B68007B6840225A657B68012283F8352001236F
:101B780016E07B681B687A695A61786800F026FA73
:101B88000346FB607B68DB6D3F229A40FB689A60E6
:101B98007B6800225A657B68012283F83520002380
:101BA80018461837BD4680BD3F8010F080B586B016
:101BB80000AFF860B9607A603B600023FB75FB6892
:101BC8009B6D3B61FB6893F83430012B01D10223F4
:101BD80040E0FB68012283F83420FB6893F8353035
:101BE800DBB2012B2FD1FB68022283F83520FB687A
:101BF80000225A653B687A68B968F86800F0B8F955
:101C0800FB68DB6D3F229A403B699A60FB681B6862
:101C18001A68FB681B6842F016021A60FB681B6CA6
:101C2800002B07D0FB681B681A68FB681B6842F02A
:101C380008021A60FB681B681A68FB681B6842F098
:101C480001021A6005E0FB68002283F834200223B1
:101C5800FB75FB7D18461837BD4680BD80B586B03C
:101C680000AF78600023BB608E4B1B688E4AA2FBD6
:101C780003239B0A7B617B689B6D3B613B691B6807
:101C8800FB607B68DB6D08229A40FB681340002BE1
:101C98001AD07B681B681B6803F00403002B13D061
:101CA8007B681B681A687B681B6822F004021A604C
:101CB8007B68DB6D08229A403B699A607B685B6DA4
:101CC80043F001027B685A657B68DB6D01229A400C
:101CD800FB681340002B12D07B681B685B6903F01C
:101CE8008003002B0BD07B68DB6D01229A403B6997
:101CF8009A607B685B6D43F002027B685A657B687B
:101D0800DB6D04229A40FB681340002B12D07B68DD
:101D18001B681B6803F00203002B0BD07B68DB6D8C
:101D280004229A403B699A607B685B6D43F0040229
:101D38007B685A657B68DB6D10229A40FB6813400C
:101D4800002B43D07B681B681B6803F00803002B3B
:101D58003CD07B68DB6D10229A403B699A607B68B7
:101D68001B681B6803F48023002B18D07B681B6852
:101D78001B6803F40023002B08D17B681B6C002B25
:101D880024D07B681B6C786898471FE07B689B6C45
:101D9800002B1BD07B689B6C7868984716E07B68A3
:101DA8001B681B6803F48073002B07D17B681B68D2
:101DB8001A687B681B6822F008021A607B681B6C33
:101DC800002B03D07B681B6C786898477B68DB6DB9
:101DD80020229A40FB681340002B00F08F807B681C
:101DE8001B681B6803F01003002B00F087807B68DA
:101DF800DB6D20229A403B699A607B6893F8353006
:101E0800DBB2052B36D17B681B681A687B681B68B8
:101E180022F016021A607B681B685A697B681B6887
:101E280022F080025A617B681B6C002B03D17B680F
:101E38009B6C002B07D07B681B681A687B681B6843
:101E480022F008021A607B68DB6D3F229A403B69EA
:101E58009A607B68012283F835207B68002283F82A
:101E680034207B681B6D002B7ED07B681B6D7868E7
:101E7800984779E07B681B681B6803F48023002B74
:101E88001DD07B681B681B6803F40023002B0DD151
:101E98007B685B6C002B31D07B685B6C78689847FB
:101EA8002CE000BF00000020B5814E1B7B68DB6B77
:101EB800002B23D07B68DB6B786898471EE07B6833
:101EC8001B681B6803F48073002B0FD17B681B68A9
:101ED8001A687B681B6822F010021A607B6801226E
:101EE80083F835207B68002283F834207B68DB6B1D
:101EF800002B03D07B68DB6B786898477B685B6D49
:101F0800002B32D07B685B6D03F00103002B22D0DD
:101F18007B68052283F835207B681B681A687B6814
:101F28001B6822F001021A60BB680133BB607A6942
:101F38009A4207D37B681B681B6803F00103002BD8
:101F4800F2D100E000BF7B68012283F835207B686E
:101F5800002283F834207B68DB6C002B05D07B687B
:101F6800DB6C7868984700E000BF1837BD4680BD35
:101F780080B485B000AFF860B9607A603B60FB68F8
:101F88001B681A68FB681B6822F480221A60FB68C9
:101F98001B683A685A60FB689B68402B08D1FB684D
:101FA8001B687A689A60FB681B68BA68DA6007E0A1
:101FB800FB681B68BA689A60FB681B687A68DA6015
:101FC80000BF1437BD465DF8047B704780B485B008
:101FD80000AF78607B681B68DBB2103B144AA2FB39
:101FE80003231B09FB60134AFB6813441B781A463A
:101FF8007B68DA65FB68032B09D97B681B6823F4C7
:102008007F7323F003031A1D7B689A6507E07B68DA
:102018001B6823F47F7323F003037A6893657B6856
:102028009B6D18461437BD465DF8047B704700BFAA
:10203800ABAAAAAABC45000880B485B000AF7860F6
:102048000023FB737B689B6ABB607B689B69002BE2
:102058001FD1BB68032B56D801A252F823F000BF4A
:10206800792000088B200008792000080F2100083B
:102078007B68DB6A03F08073002B46D00123FB7377
:1020880043E07B68DB6AB3F1C07F40D10123FB7377
:102098003DE07B689B69B3F5005F21D1BB68032BEA
:1020A80037D801A252F823F0C1200008C720000841
:1020B800C1200008D92000080123FB7330E07B68A9
:1020C800DB6A03F08073002B25D00123FB7322E029
:1020D8007B68DB6AB3F1C07F1FD10123FB731CE06F
:1020E800BB68022B03D9BB68032B03D018E001237C
:1020F800FB7315E07B68DB6A03F08073002B0ED05E
:102108000123FB730BE000BF0AE000BF08E000BF3B
:1021180006E000BF04E000BF02E000BF00E000BF2F
:10212800FB7B18461437BD465DF8047B704700BF3B
:1021380080B489B000AF7860396000237B610023E8
:102148003B610023BB610023FB616BE10122FB695A
:1021580002FA03F37B613B681B687A6913403B61B1
:102168003A697B699A4240F05A813B685B6803F0A0
:102178000303012B05D03B685B6803F00303022BC4
:1021880030D17B689B68BB61FB695B00032202FA64
:1021980003F3DB43BA691340BB613B68DA68FB6948
:1021A8005B0002FA03F3BA691343BB617B68BA693F
:1021B8009A607B685B68BB610122FB6902FA03F3E2
:1021C800DB43BA691340BB613B685B681B0903F0DA
:1021D8000102FB6902FA03F3BA691343BB617B6826
:1021E800BA695A603B685B6803F00303032B17D096
:1021F8007B68DB68BB61FB695B00032202FA03F3BF
:10220800DB43BA691340BB613B689A68FB695B00B2
:1022180002FA03F3BA691343BB617B68BA69DA60EF
:102228003B685B6803F00303022B23D1FB69DA08E0
:102238007B68083253F82230BB61FB6903F007035F
:102248009B000F2202FA03F3DB43BA691340BB6118
:102258003B681A69FB6903F007039B0002FA03F362
:10226800BA691343BB61FB69DA087B680832B9694C
:1022780043F822107B681B68BB61FB695B00032283
:1022880002FA03F3DB43BA691340BB613B685B683E
:1022980003F00302FB695B0002FA03F3BA69134314
:1022A800BB617B68BA691A603B685B6803F44033BA
:1022B800002B00F0B4800023FB60604B5B6C5F4A2E
:1022C80043F4804353645D4B5B6C03F48043FB60D1
:1022D800FB685B4AFB699B08023352F82330BB61F9
:1022E800FB6903F003039B000F2202FA03F3DB43AD
:1022F800BA691340BB617B68524A93422BD07B6812
:10230800514A934225D07B68504A93421FD07B683C
:102318004F4A934219D07B684E4A934213D07B6848
:102328004D4A93420DD07B684C4A934207D07B6854
:102338004B4A934201D107230EE008230CE0062301
:102348000AE0052308E0042306E0032304E002234F
:1023580002E0012300E00023FA6902F00302920080
:102368009340BA691343BB613549FB699B08023343
:10237800BA6941F823203B4B9B68BB613B69DB434F
:10238800BA691340BB613B685B6803F48013002B98
:1023980003D0BA693B691343BB61324ABB69936096
:1023A800304BDB68BB613B69DB43BA691340BB61F7
:1023B8003B685B6803F40013002B03D0BA693B69E0
:1023C8001343BB61274ABB69D360264B5B68BB617B
:1023D8003B69DB43BA691340BB613B685B6803F444
:1023E8000033002B03D0BA693B691343BB611D4A14
:1023F800BB6953601B4B1B68BB613B69DB43BA6914
:102408001340BB613B685B6803F48033002B03D047
:10241800BA693B691343BB61124ABB691360FB6924
:102428000133FB61FB690F2B7FF690AE00BF00BF45
:102438002437BD465DF8047B704700BF0038024072
:102448000038014000000240000402400008024039
:10245800000C024000100240001402400018024024
:10246800001C0240003C014080B483B000AF78609B
:102478000B467B8013467B707B78002B03D07A88D1
:102488007B689A6103E07B881A047B689A6100BFC5
:102498000C37BD465DF8047B7047000080B586B0F8
:1024A80000AF78607B68002B01D1012367E27B686D
:1024B8001B6803F00103002B75D0884B9B6803F061
:1024C8000C03042B0CD0854B9B6803F00C03082BE2
:1024D80012D1824B5B6803F48003B3F5800F0BD1F4
:1024E8007E4B1B6803F40033002B5BD07B685B6872
:1024F800002B57D1012342E27B685B68B3F5803F2C
:1025080006D1764B1B68754A43F4803313601DE08F
:102518007B685B68B3F5A02F0CD1704B1B686F4AC2
:1025280043F4802313606D4B1B686C4A43F480337B
:1025380013600BE0694B1B68684A23F4803313600F
:10254800664B1B68654A23F4802313607B685B68CD
:10255800002B13D0FEF7E0FB386108E0FEF7DCFB48
:1025680002463B69D31A642B01D9032307E25B4B6C
:102578001B6803F40033002BF0D014E0FEF7CCFB0B
:10258800386108E0FEF7C8FB02463B69D31A642BA2
:1025980001D90323F3E1514B1B6803F40033002BEB
:1025A800F0D100E000BF7B681B6803F00203002B3A
:1025B80063D04A4B9B6803F00C03002B0BD0474BAE
:1025C8009B6803F00C03082B1CD1444B5B6803F495
:1025D8008003002B16D1414B1B6803F00203002B2C
:1025E80005D07B68DB68012B01D00123C7E13B4B99
:1025F8001B6823F0F8027B681B69DB00374913432B
:102608000B603AE07B68DB68002B20D0344B01225A
:102618001A60FEF781FB386108E0FEF77DFB024691
:102628003B69D31A022B01D90323A8E12B4B1B6862
:1026380003F00203002BF0D0284B1B6823F0F802AC
:102648007B681B69DB00254913430B6015E0244BAD
:1026580000221A60FEF760FB386108E0FEF75CFBB9
:1026680002463B69D31A022B01D9032387E11B4B8E
:102678001B6803F00203002BF0D17B681B6803F092
:102688000803002B36D07B685B69002B16D0154BEE
:1026980001221A60FEF740FB386108E0FEF73CFBB8
:1026A80002463B69D31A022B01D9032367E10B4B7E
:1026B8005B6F03F00203002BF0D01BE0094B0022F4
:1026C8001A60FEF729FB38610EE0FEF725FB02468B
:1026D8003B69D31A022B07D9032350E10038024083
:1026E80000004742800E4742884B5B6F03F00203AD
:1026F800002BEAD17B681B6803F00403002B00F071
:1027080097800023FB75814B1B6C03F08053002BD3
:102718000FD10023BB607D4B1B6C7C4A43F0805378
:1027280013647A4B1B6C03F08053BB60BB680123B6
:10273800FB75774B1B6803F48073002B18D1744B1F
:102748001B68734A43F480731360FEF7E5FA386137
:1027580008E0FEF7E1FA02463B69D31A022B01D9D9
:1027680003230CE16A4B1B6803F48073002BF0D041
:102778007B689B68012B06D1644B1B6F634A43F04F
:10278800010313671CE07B689B68052B0CD15F4B2A
:102798001B6F5E4A43F0040313675C4B1B6F5B4A75
:1027A80043F0010313670BE0584B1B6F574A23F0A4
:1027B80001031367554B1B6F544A23F00403136737
:1027C8007B689B68002B15D0FEF7A6FA38610AE0F3
:1027D800FEF7A2FA02463B69D31A41F288329342C5
:1027E80001D90323CBE0494B1B6F03F00203002BF5
:1027F800EED014E0FEF790FA38610AE0FEF78CFAA2
:1028080002463B69D31A41F28832934201D9032325
:10281800B5E03E4B1B6F03F00203002BEED1FB7DAE
:10282800012B05D1394B1B6C384A23F080531364B4
:102838007B689B69002B00F0A180344B9B6803F0F8
:102848000C03082B5CD07B689B69022B41D1314B70
:1028580000221A60FEF760FA386108E0FEF75CFAB9
:1028680002463B69D31A022B01D9032387E0274B81
:102878001B6803F00073002BF0D17B68DA697B6872
:102888001B6A1A437B685B6A9B011A437B689B6AD5
:102898005B08013B1B041A437B68DB6A1B061B4968
:1028A80013434B601B4B01221A60FEF735FA38615F
:1028B80008E0FEF731FA02463B69D31A022B01D928
:1028C80003235CE0114B1B6803F00073002BF0D06E
:1028D80054E0104B00221A60FEF71EFA386108E037
:1028E800FEF71AFA02463B69D31A022B01D90323D1
:1028F80045E0064B1B6803F00073002BF0D13DE068
:102908007B689B69012B07D1012338E0003802401E
:1029180000700040600047421B4B5B68FB607B68AF
:102928009B69012B28D0FB6803F480027B68DB6974
:102938009A4221D1FB6803F03F027B681B6A9A42E6
:102948001AD1FA6847F6C07313407A68526A92013E
:10295800934211D1FB6803F440327B689B6A5B08A1
:10296800013B1B049A4207D1FB6803F070627B6845
:10297800DB6A1B069A4201D0012300E000231846B7
:102988001837BD4680BD00BF0038024080B584B00E
:1029980000AF786039607B68002B01D10123CCE05F
:1029A800684B1B6803F007033A689A420CD9654BD9
:1029B8003A68D2B21A70634B1B6803F007033A688F
:1029C8009A4201D00123B8E07B681B6803F0020338
:1029D800002B20D07B681B6803F00403002B05D074
:1029E800594B9B68584A43F4E05393607B681B68D3
:1029F80003F00803002B05D0534B9B68524A43F45D
:102A080060439360504B9B6823F0F0027B689B689F
:102A18004D4913438B607B681B6803F00103002B4F
:102A280044D07B685B68012B07D1474B1B6803F4D4
:102A38000033002B19D101237FE07B685B68022BF0
:102A480003D07B685B68032B07D13F4B1B6803F0FF
:102A58000073002B09D101236FE03B4B1B6803F087
:102A68000203002B01D1012367E0374B9B6823F059
:102A780003027B685B68344913438B60FEF74CF9AB
:102A8800F8600AE0FEF748F90246FB68D31A41F2FB
:102A98008832934201D903234FE02B4B9B6803F004
:102AA8000C027B685B689B009A42EBD1254B1B6844
:102AB80003F007033A689A420CD2224B3A68D2B222
:102AC8001A70204B1B6803F007033A689A4201D03A
:102AD800012332E07B681B6803F00403002B08D055
:102AE800194B9B6823F4E0527B68DB681649134353
:102AF8008B607B681B6803F00803002B09D0124B1E
:102B08009B6823F460427B681B69DB000E49134312
:102B18008B6000F021F802460B4B9B681B0903F001
:102B28000F030A49CB5C22FA03F3094A1360094BE5
:102B38001B681846FEF7ACF8002318461037BD4648
:102B480080BD00BF003C024000380240AC45000890
:102B580000000020040000202DE9B04F90B000AF25
:102B680000237B630023FB6300233B630023BB63D9
:102B7800594B9B6803F00C03082B0DD0082B00F26F
:102B8800A180002B02D0042B03D09BE0534BBB63E6
:102B98009BE0534BBB6398E04F4B5B6803F03F03EC
:102BA8007B634D4B5B6803F48003002B28D04A4BB2
:102BB8005B689B0900223B627A623B6AC3F30800A8
:102BC8000021474B03FB01F2002300FB03F31344EE
:102BD800434AA0FB0212FA620A46BA62FA6A13442E
:102BE800FB627B6B0022BB61FA61D7E90623D7E958
:102BF8000A01FDF7E5FA02460B461346FB6353E06C
:102C0800354B5B689B0900223B617A613B69C3F3E2
:102C1800080A4FF0000B52465B464FF000004FF099
:102C28000001590141EAD261500102460B46B2EB5C
:102C38000A0863EB0B094FF000024FF000034FEA5C
:102C4800891343EA98634FEA8812B2EB080463EBEE
:102C580009054FF000024FF00003EB0043EA5473FC
:102C6800E20014461D4614EB0A033B6045EB0B03D8
:102C78007B604FF000024FF00003D7E9004529467A
:102C88008B02214643EA915321468A02104619468F
:102C98007B6B0022BB60FA60D7E90223FDF790FA4C
:102CA80002460B461346FB630B4B5B681B0C03F099
:102CB800030301335B003B63FA6B3B6BB2FBF3F33B
:102CC800BB6302E0054BBB6300BFBB6B18464037D4
:102CD800BD46BDE8B08F00BF003802400024F400B4
:102CE80040787D0180B582B000AF78607B68002BAA
:102CF80001D1012341E07B6893F83D30DBB2002B22
:102D080006D17B68002283F83C207868FDF75CFEDA
:102D18007B68022283F83D207B681A687B6804334D
:102D28001946104600F0B2FC7B68012283F8462061
:102D38007B68012283F83E207B68012283F83F20CC
:102D48007B68012283F840207B68012283F84120B8
:102D58007B68012283F842207B68012283F84320A4
:102D68007B68012283F844207B68012283F8452090
:102D78007B68012283F83D20002318460837BD46AA
:102D880080BD80B582B000AF78607B68002B01D130
:102D9800012341E07B6893F83D30DBB2002B06D17C
:102DA8007B68002283F83C20786800F039F87B685B
:102DB800022283F83D207B681A687B680433194631
:102DC800104600F063FC7B68012283F846207B688C
:102DD800012283F83E207B68012283F83F207B682C
:102DE800012283F840207B68012283F841207B6818
:102DF800012283F842207B68012283F843207B6804
:102E0800012283F844207B68012283F845207B68EF
:102E1800012283F83D20002318460837BD4680BDAF
:102E280080B483B000AF786000BF0C37BD465DF852
:102E3800047B704780B586B000AFF860B9607A60EF
:102E48007B800023FB75BB68002B09D1FB6893F8D6
:102E58003E30DBB2022B0CBF01230023DBB222E0A1
:102E6800BB68042B09D1FB6893F83F30DBB2022B17
:102E78000CBF01230023DBB215E0BB68082B09D186
:102E8800FB6893F84030DBB2022B0CBF0123002310
:102E9800DBB208E0FB6893F84130DBB2022B0CBFD1
:102EA80001230023DBB2002B01D0022371E1BB68B0
:102EB800002B09D1FB6893F83E30DBB2012B0CBF25
:102EC80001230023DBB222E0BB68042B09D1FB6895
:102ED80093F83F30DBB2012B0CBF01230023DBB298
:102EE80015E0BB68082B09D1FB6893F84030DBB2CA
:102EF800012B0CBF01230023DBB208E0FB6893F829
:102F08004130DBB2012B0CBF01230023DBB2002BC5
:102F180024D07B68002B02D07B88002B01D10123B1
:102F280037E1BB68002B04D1FB68022283F83E20FE
:102F380016E0BB68042B04D1FB68022283F83F200B
:102F48000EE0BB68082B04D1FB68022283F84020FE
:102F580006E0FB68022283F8412001E0012318E122
:102F6800BB680C2B00F2AE8001A252F823F000BF20
:102F7800AD2F0008CD300008CD300008CD30000856
:102F8800F52F0008CD300008CD300008CD300008FE
:102F98003D300008CD300008CD300008CD300008A5
:102FA80085300008FB685B6A7C4ADA63FB685B6A09
:102FB8007B4A1A64FB685B6A7A4ADA64FB68586A77
:102FC8007968FB681B6834331A467B88FEF7EEFD88
:102FD8000346002B01D00123DBE0FB681B68DA689D
:102FE800FB681B6842F40072DA606EE0FB689B6A5B
:102FF8006A4ADA63FB689B6A694A1A64FB689B6AD7
:10300800684ADA64FB68986A7968FB681B68383331
:103018001A467B88FEF7CAFD0346002B01D0012320
:10302800B7E0FB681B68DA68FB681B6842F48062DB
:10303800DA604AE0FB68DB6A584ADA63FB68DB6AF5
:10304800574A1A64FB68DB6A564ADA64FB68D86A2E
:103058007968FB681B683C331A467B88FEF7A6FD37
:103068000346002B01D0012393E0FB681B68DA6854
:10307800FB681B6842F40062DA6026E0FB681B6BA1
:10308800464ADA63FB681B6B454A1A64FB681B6B8C
:10309800444ADA64FB68186B7968FB681B6840333C
:1030A8001A467B88FEF782FD0346002B01D00123D8
:1030B8006FE0FB681B68DA68FB681B6842F48052A3
:1030C800DA6002E00123FB7500BFFB7D002B5FD1B6
:1030D800FB681B680122B968184600F0CDFDFB6843
:1030E8001B68314A934204D0FB681B682F4A9342FD
:1030F80001D1012300E00023002B07D0FB681B68E7
:103108005A6CFB681B6842F400425A64FB681B68EF
:10311800254A934222D0FB681B68B3F1804F1DD02B
:10312800FB681B68224A934218D0FB681B68214A37
:10313800934213D0FB681B681F4A93420ED0FB686A
:103148001B681A4A934209D0FB681B681B4A9342C2
:1031580004D0FB681B681A4A934211D1FB681B68AC
:103168009B6803F007033B613B69062B10D0FB68A3
:103178001B681A68FB681B6842F001021A6007E0C6
:10318800FB681B681A68FB681B6842F001021A603A
:10319800FB7D18461837BD4680BD00BF8535000841
:1031A8002D360008F33400080000014000040140F7
:1031B8000004004000080040000C004000400140AE
:1031C8000018004080B586B000AFF860B9607A603A
:1031D8000023FB75FB6893F83C30012B01D10223D7
:1031E800AEE0FB68012283F83C207B680C2B00F2E0
:1031F8009F8001A252F823F03532000839330008C5
:1032080039330008393300087532000839330008AB
:103218003933000839330008B73200083933000859
:103228003933000839330008F7320008FB681B6897
:10323800B968184600F0D6FAFB681B689A69FB68FB
:103248001B6842F008029A61FB681B689A69FB6870
:103258001B6822F004029A61FB681B689969BB68C5
:103268001A69FB681B680A439A6164E0FB681B687B
:10327800B968184600F026FBFB681B689A69FB686A
:103288001B6842F400629A61FB681B689A69FB68D4
:103298001B6822F480629A61FB681B689969BB68A5
:1032A8001B691A02FB681B680A439A6143E0FB68C2
:1032B8001B68B968184600F07BFBFB681B68DA6975
:1032C800FB681B6842F00802DA61FB681B68DA6970
:1032D800FB681B6822F00402DA61FB681B68D96985
:1032E800BB681A69FB681B680A43DA6123E0FB685C
:1032F8001B68B968184600F0CFFBFB681B68DA69E1
:10330800FB681B6842F40062DA61FB681B68DA69D3
:10331800FB681B6822F48062DA61FB681B68D96964
:10332800BB681B691A02FB681B680A43DA6102E082
:103338000123FB7500BFFB68002283F83C20FB7D5E
:1033480018461837BD4680BD80B584B000AF786098
:1033580039600023FB737B6893F83C30012B01D163
:103368000223B4E07B68012283F83C207B680222B8
:1033780083F83D207B681B689B68BB60BB6823F0B3
:103388007703BB60BB6823F47F43BB607B681B6823
:10339800BA689A603B681B68B3F5005F3ED0B3F526
:1033A800005F00F28780B3F5805F00F08680B3F598
:1033B800805F7FD8702B1AD0702B7BD8602B50D0B1
:1033C800602B77D8502B3CD0502B73D8402B58D03B
:1033D800402B6FD8302B64D0302B6BD8202B60D08B
:1033E800202B67D8002B5CD0102B5AD062E07B686A
:1033F80018683B6899683B685A683B68DB6800F066
:103408001BFC7B681B689B68BB60BB6843F0770349
:10341800BB607B681B68BA689A604FE07B68186875
:103428003B6899683B685A683B68DB6800F004FCB5
:103438007B681B689A687B681B6842F480429A60C4
:103448003CE07B6818683B6859683B68DB681A464B
:1034580000F078FB7B681B685021184600F0D1FB10
:103468002CE07B6818683B6859683B68DB681A463B
:1034780000F097FB7B681B686021184600F0C1FBD1
:103488001CE07B6818683B6859683B68DB681A462B
:1034980000F058FB7B681B684021184600F0B1FB20
:1034A8000CE07B681A683B681B681946104600F0F8
:1034B800A8FB03E00123FB7300E000BF7B68012247
:1034C80083F83D207B68002283F83C20FB7B18466C
:1034D8001037BD4680BD80B483B000AF786000BFB0
:1034E8000C37BD465DF8047B704780B584B000AFEB
:1034F80078607B689B6BFB60FB685B6A7A689A42C2
:1035080007D1FB6801221A77FB68012283F83E2065
:103518002AE0FB689B6A7A689A4207D1FB68022214
:103528001A77FB68012283F83F201DE0FB68DB6AFD
:103538007A689A4207D1FB6804221A77FB6801224D
:1035480083F8402010E0FB681B6B7A689A4207D129
:10355800FB6808221A77FB68012283F8412003E000
:10356800FB68012283F83D20F868FFF7B4FFFB6889
:1035780000221A7700BF1037BD4680BD80B584B0E1
:1035880000AF78607B689B6BFB60FB685B6A7A685E
:103598009A420BD1FB6801221A777B68DB69002B02
:1035A80036D1FB68012283F83E2031E0FB689B6A34
:1035B8007A689A420BD1FB6802221A777B68DB692A
:1035C800002B25D1FB68012283F83F2020E0FB680F
:1035D800DB6A7A689A420BD1FB6804221A777B6807
:1035E800DB69002B14D1FB68012283F840200FE02F
:1035F800FB681B6B7A689A420AD1FB6808221A7723
:103608007B68DB69002B03D1FB68012283F841202A
:10361800F868FCF765FFFB6800221A7700BF1037CF
:10362800BD4680BD80B584B000AF78607B689B6B79
:10363800FB60FB685B6A7A689A4203D1FB680122E7
:103648001A7719E0FB689B6A7A689A4203D1FB688B
:1036580002221A7710E0FB68DB6A7A689A4203D183
:10366800FB6804221A7707E0FB681B6B7A689A42AA
:1036780002D1FB6808221A77F868FCF719FFFB6883
:1036880000221A7700BF1037BD4680BD80B485B0D0
:1036980000AF786039607B681B68FB607B68464ACE
:1036A800934213D07B68B3F1804F0FD07B68434AB5
:1036B80093420BD07B68424A934207D07B68414AC9
:1036C800934203D07B68404A934208D1FB6823F0B9
:1036D8007003FB603B685B68FA681343FB607B68B8
:1036E800354A93422BD07B68B3F1804F27D07B6853
:1036F800324A934223D07B68314A93421FD07B6879
:10370800304A93421BD07B682F4A934217D07B687C
:103718002E4A934213D07B682D4A93420FD07B6880
:103728002C4A93420BD07B682B4A934207D07B6884
:103738002A4A934203D07B68294A934208D1FB68FE
:1037480023F44073FB603B68DB68FA681343FB6053
:10375800FB6823F080023B685B691343FB607B686E
:10376800FA681A603B689A687B68DA623B681A688C
:103778007B689A627B68104A934203D07B68124A3E
:10378800934203D13B681A697B681A637B680122FC
:103798005A617B681B6903F00103012B05D17B6823
:1037A8001B6923F001027B681A6100BF1437BD460C
:1037B8005DF8047B704700BF000001400004004032
:1037C80000080040000C0040000401400040014097
:1037D800004401400048014000180040001C00401F
:1037E8000020004080B487B000AF786039607B6803
:1037F8001B6A7B617B681B6A23F001027B681A6283
:103808007B685B683B617B689B69FB60FB6823F0B6
:103818007003FB60FB6823F00303FB603B681B68D5
:10382800FA681343FB607B6923F002037B613B6802
:103838009B687A6913437B617B68204A934203D073
:103848007B681F4A93420CD17B6923F008037B6194
:103858003B68DB687A6913437B617B6923F0040367
:103868007B617B68154A934203D07B68144A934274
:1038780011D13B6923F480733B613B6923F40073E6
:103888003B613B685B693A6913433B613B689B69F1
:103898003A6913433B617B683A695A607B68FA6806
:1038A8009A613B685A687B685A637B687A691A62CE
:1038B80000BF1C37BD465DF8047B7047000001401F
:1038C8000004014080B487B000AF786039607B683D
:1038D8001B6A7B617B681B6A23F010027B681A6293
:1038E8007B685B683B617B689B69FB60FB6823F4D2
:1038F800E043FB60FB6823F44073FB603B681B6894
:103908001B02FA681343FB607B6923F020037B6189
:103918003B689B681B017A6913437B617B68224A79
:10392800934203D07B68214A93420DD17B6923F0EF
:1039380080037B613B68DB681B017A6913437B6109
:103948007B6923F040037B617B68174A934203D06D
:103958007B68164A934213D13B6923F480633B6129
:103968003B6923F400633B613B685B699B003A69F0
:1039780013433B613B689B699B003A6913433B6176
:103988007B683A695A607B68FA689A613B685A684A
:103998007B689A637B687A691A6200BF1C37BD46E8
:1039A8005DF8047B704700BF00000140000401403F
:1039B80080B487B000AF786039607B681B6A7B6130
:1039C8007B681B6A23F480727B681A627B685B6879
:1039D8003B617B68DB69FB60FB6823F07003FB607D
:1039E800FB6823F00303FB603B681B68FA6813431A
:1039F800FB607B6923F400737B613B689B681B0257
:103A08007A6913437B617B68214A934203D07B68C0
:103A1800204A93420DD17B6923F400637B613B68A4
:103A2800DB681B027A6913437B617B6923F480633B
:103A38007B617B68164A934203D07B68154A9342A0
:103A480013D13B6923F480533B613B6923F4005352
:103A58003B613B685B691B013A6913433B613B6807
:103A68009B691B013A6913433B617B683A695A6059
:103A78007B68FA68DA613B685A687B68DA637B6856
:103A88007A691A6200BF1C37BD465DF8047B70472F
:103A9800000001400004014080B487B000AF7860A6
:103AA80039607B681B6A3B617B681B6A23F4805220
:103AB8007B681A627B685B687B617B68DB69FB609B
:103AC800FB6823F4E043FB60FB6823F44073FB606E
:103AD8003B681B681B02FA681343FB603B6923F4CD
:103AE80000533B613B689B681B033A6913433B6186
:103AF8007B68124A934203D07B68114A934209D1EA
:103B08007B6923F480437B613B685B699B017A692D
:103B180013437B617B687A695A607B68FA68DA616B
:103B28003B685A687B681A647B683A691A6200BF06
:103B38001C37BD465DF8047B704700BF000001409C
:103B48000004014080B487B000AFF860B9607A60C3
:103B5800FB681B6A7B61FB681B6A23F00102FB6838
:103B68001A62FB689B693B613B6923F0F0033B6188
:103B78007B681B013A6913433B617B6923F00A03A5
:103B88007B617A69BB6813437B61FB683A699A6118
:103B9800FB687A691A6200BF1C37BD465DF8047B72
:103BA800704780B487B000AFF860B9607A60FB688E
:103BB8001B6A7B61FB681B6A23F01002FB681A62B0
:103BC800FB689B693B613B6923F470433B617B68FD
:103BD8001B033A6913433B617B6923F0A0037B61B4
:103BE800BB681B017A6913437B61FB683A699A6178
:103BF800FB687A691A6200BF1C37BD465DF8047B12
:103C0800704780B485B000AF786039607B689B6886
:103C1800FB60FB6823F07003FB603A68FB681343A2
:103C280043F00703FB607B68FA689A6000BF1437AB
:103C3800BD465DF8047B704780B487B000AFF8607C
:103C4800B9607A603B60FB689B687B617B6923F4A1
:103C58007F437B613B681A027B681A43BB68134346
:103C68007A6913437B61FB687A699A6000BF1C37E5
:103C7800BD465DF8047B704780B487B000AFF8603C
:103C8800B9607A60BB6803F01F03012202FA03F3EC
:103C98007B61FB681A6A7B69DB431A40FB681A621E
:103CA800FB681A6ABB6803F01F03796801FA03F31B
:103CB8001A43FB681A6200BF1C37BD465DF8047BD7
:103CC8007047000080B485B000AF786039607B68C9
:103CD80093F83C30012B01D102235AE07B68012282
:103CE80083F83C207B68022283F83D207B681B68B0
:103CF8005B68FB607B681B689B68BB60FB6823F0A4
:103D08007003FB603B681B68FA681343FB607B68C1
:103D18001B68FA685A607B681B68214A934222D064
:103D28007B681B68B3F1804F1DD07B681B681D4AF8
:103D3800934218D07B681B681B4A934213D07B6858
:103D48001B681A4A93420ED07B681B68184A934234
:103D580009D07B681B68174A934204D07B681B68AC
:103D6800154A93420CD1BB6823F08003BB603B68C3
:103D78005B68BA681343BB607B681B68BA689A6063
:103D88007B68012283F83D207B68002283F83C2071
:103D9800002318461437BD465DF8047B704700BF02
:103DA800000001400004004000080040000C0040F2
:103DB80000040140004001400018004080B584B074
:103DC80000AF786039607B689B6F5A1C7B689A6784
:103DD8007B6893F87030002B35D17B6893F874308A
:103DE800012B0CD830220021386800F07DFB7B685D
:103DF80093F874300133DAB27B6883F874207B68F7
:103E080093F872300133DAB27B6883F872207B68EA
:103E180093F87230092B72D97B68002283F87120DD
:103E28007B6893F87330002B08D07B68002283F8F6
:103E380073207B68022283F8702060E07B6801228F
:103E480083F870205BE07B6893F87030012B0DD10C
:103E58007B6893F87330002B51D07B68002283F87D
:103E680073207B68022283F8702048E07B68DB6F50
:103E78005A1C7B68DA677B68DA6E7B6893F8713066
:103E880019460B465B000B441344BB600023FB73CD
:103E980011E0FB7BBA6813441B781B011A4A1344D0
:103EA80010221946386800F063FB3B6810333B600A
:103EB800FB7B0133FB73FB7B022BEAD97B6893F80E
:103EC80071300133DAB27B6883F871207B6893F82C
:103ED80071301A467B68B3F868309A420FD37B6812
:103EE800002283F871207B68002283F874207B68A5
:103EF800002283F872207B68002283F8702000BFBC
:103F08001037BD4680BD00BFC445000880B584B0E9
:103F180000AF78600023FB737B68D86E7B68B3F8CA
:103F280068301A4613465B0013441A46002100F015
:103F3800DBFA7B68012283F87320FB7B1846103775
:103F4800BD4680BD80B485B000AF78600846114694
:103F58001A4603467B800B467B7013463B70002352
:103F6800FB737B68B3F868307A889A4221D27B6801
:103F7800D96E7A8813465B00134401330B447A7870
:103F88001A707B68D96E7A8813465B0013440B4419
:103F98003A781A707B68D96E7A8813465B001344A6
:103FA80002330B443A7E1A707B68012283F873202F
:103FB80001E00123FB73FB7B18461437BD465DF80F
:103FC800047B704780B586B000AFF860B9607A604E
:103FD8007B800023FB75FB68BA681A60FB687A6807
:103FE8005A60FB687A88A3F86820FB68002283F887
:103FF8007020FB68002283F87320FB68022283F894
:1040080074207A8813465B001344184600F0B6F90A
:1040180003461A46FB68DA66FB68DB6E002B12D093
:10402800FB68D86E7A8813465B0013441A46002151
:1040380000F05AFAFB6803F1080230237968B8687F
:10404800FEF7F8FE01E00223FB75FB7D18461837E2
:10405800BD4680BD80B483B000AF78600B46FB706E
:10406800044AFB78137000BF0C37BD465DF8047B2B
:10407800704700BFF4010020B0B588B002AF786087
:104088000B467B80954B1B68FB60954B1B78032B7D
:1040980000F0BF80032B00F36A81012B02D0022BB2
:1040A80056D064E18F4B1B68FA689A42C0F05A8177
:1040B8008D4B19888D4B1B7818468D4A03465B003B
:1040C800034413441A78894B1B781C4688482346B6
:1040D8005B002344034401331878844B1B781D4646
:1040E800834C2B465B002B44234402331B780093FC
:1040F80003467868FFF726FF7B4B1B8801339AB28B
:10410800794B1A807B4B1B6801337A4A1360794BD1
:104118001B6803F03F03002B05D1744B1B78013358
:10412800DAB2724B1A70714B1B78062B02D96F4B9F
:1041380000221A706C4B1B888B2B02D96A4B002209
:104148001A806D4B1A68FB681344664A136009E1CC
:10415800644B1B68FA689A42C0F00681624B198862
:10416800624B1B781846654A03465B0003441344B8
:104178001A785E4B1B781C46604823465B00234434
:10418800034401331878594B1B781D465B4C2B466A
:104198005B002B44234402331B7800930346786862
:1041A800FFF7D0FE504B1B88083B99B200230093C1
:1041B800002300227868FFF7C5FE4B4B1B880133AC
:1041C8009AB2494B1A804B4B1B680133494A13601A
:1041D800484B1B6803F00103002B05D1434B1B78A8
:1041E8000133DAB2414B1A70404B1B780F2B02D9BE
:1041F8003E4B00221A703C4B1B888B2B02D93A4B42
:1042080000221A803C4B1A68FB681344354A136035
:10421800AAE03B4B1B881A467B881344DA0F1344E9
:104228005B109AB2364B1A80354B1B88B3F5FA6F80
:1042380004D9334B1B88A3F5FA6300E00023BB6065
:10424800BB68304A82FB03129210DB17D31A7B61DA
:104258007B698C2B01DD8C237B612B4B1B687A6976
:104268009A4205DD284B1B680133274A136009E091
:10427800254B1B687A699A4204DA234B1B68013B79
:10428800214A1360174B1B68FA689A426ED30023C1
:104298003B615BE01C4B1B683A699A4236DA7B68E3
:1042A800D96E3A6913465B00134401330B44082264
:1042B8001A707B68D96E3A6913465B0013440B4445
:1042C80008221A707B68D96E3A6913465B0013445A
:1042D80002330B4408221A7035E000BFF0010020B9
:1042E800F40100200C000020F6010020F801002055
:1042F800C4550008FC0100200C560008DC550008D5
:104308000002002067666666040200207B68D96E9A
:104318003A6913465B00134401330B4400221A70B8
:104328007B68D96E3A6913465B0013440B4400223C
:104338001A707B68D96E3A6913465B0013440233DE
:104348000B4400221A703B6901333B613B698B2B9C
:10435800A0DD7B68012283F87320FB680533064AD9
:10436800136003E000BF02E000BF00E000BF00BF31
:104378001837BD46B0BD00BF0C000020024B0146F7
:10438800186800F025B800BF1000002070B50F4E67
:104398000C463168054611B900F0AEF83060214688
:1043A800284600F0A9F8431C03D14FF0FF342046FB
:1043B80070BDC41C24F00304A042F8D0211A28467A
:1043C80000F09AF80130F2D1EFE700BF08020020B0
:1043D8002DE9F843CD1C25F0030508350C2D38BF11
:1043E8000C25002D064601DBA94204D90C233360B5
:1043F8000020BDE8F883DFF8D48000F069F8D8F829
:1044080000301C4644BB29463046FFF7BFFF431C1B
:10441800044658D1D8F800402746002F43D1002C35
:104428004BD023683946304604EB030900F064F8A2
:10443800814542D121686D1A29463046FFF7A6FF0B
:1044480001303AD023682B442360D8F800305A68EA
:1044580062BBC8F800700FE02268521B20D40B2AF8
:1044680017D96119A342256018BF5960636808BF4E
:10447800C8F8001062514B60304600F02FF804F184
:104488000B00231D20F00700C21A1CBF1B1AA350E3
:10449800AFE76268A3420CBFC8F800205A60EBE798
:1044A80023466468AEE73C467F68B6E71A465B6811
:1044B800A342FBD100235360DEE70C233360304670
:1044C80000F00CF894E70560D6E700BF0C02002066
:1044D800014800F04BB800BF4C030020014800F031
:1044E80046B800BF4C03002002440346934200D163
:1044F800704703F8011BF9E738B5064D0023044659
:1045080008462B60FCF730FB431C02D12B6803B133
:10451800236038BD48030020014B1868704700BF6E
:104528001000002070B50D4D0D4C641BA410002622
:10453800A64209D10B4D0C4C00F028F8641BA410BE
:104548000026A64205D170BD55F8043B98470136B0
:10455800EEE755F8043B98470136F2E7185600088D
:1045680018560008185600081C560008704770476F
:104578000A44914200F1FF3300D1704710B511F899
:10458800014B03F8014F9142F9D110BDF8B500BFB6
:10459800F8BC08BC9E467047F8B500BFF8BC08BC1C
:0445A8009E46704774
:1045AC0000000000000000000102030406070809D7
:1045BC000006101600061016050005000500050083
:1045CC0005000500050005000500050005000500B7
:1045DC000500050005000F0005000500050005009D
:1045EC00050005000F00050005000500050005008D
:1045FC00050005000F000F00050005000500050073
:10460C0005000F000500050005000500050005006C
:10461C0005000F0005000F00050005000500050052
:10462C0005000F000F000500050005000500050042
:10463C0005000F000F000F00050005000500050028
:10464C000F0005000500050005000500050005002C
:10465C000F00050005000F00050005000500050012
:10466C000F0005000F000500050005000500050002
:10467C000F0005000F000F000500050005000500E8
:10468C000F000F00050005000500050005000500E2
:10469C000F000F0005000F000500050005000500C8
:1046AC000F000F000F0005000500050005000500B8
:1046BC000F000F000F000F000500050005000F0094
:1046CC0005000500050005000500050005000F00AC
:1046DC000500050005000F000500050005000F0092
:1046EC00050005000F0005000500050005000F0082
:1046FC00050005000F000F000500050005000F0068
:10470C0005000F00050005000500050005000F0061
:10471C0005000F0005000F000500050005000F0047
:10472C0005000F000F0005000500050005000F0037
:10473C0005000F000F000F000500050005000F001D
:10474C000F000500050005000500050005000F0021
:10475C000F00050005000F000500050005000F0007
:10476C000F0005000F0005000500050005000F00F7
:10477C000F0005000F000F000500050005000F00DD
:10478C000F000F00050005000500050005000F00D7
:10479C000F000F0005000F000500050005000F00BD
:1047AC000F000F000F0005000500050005000F00AD
:1047BC000F000F000F000F00050005000F00050093
:1047CC000500050005000500050005000F000500AB
:1047DC000500050005000F00050005000F00050091
:1047EC00050005000F000500050005000F00050081
:1047FC00050005000F000F00050005000F00050067
:10480C0005000F0005000500050005000F00050060
:10481C0005000F0005000F00050005000F00050046
:10482C0005000F000F000500050005000F00050036
:10483C0005000F000F000F00050005000F0005001C
:10484C000F00050005000500050005000F00050020
:10485C000F00050005000F00050005000F00050006
:10486C000F0005000F000500050005000F000500F6
:10487C000F0005000F000F00050005000F000500DC
:10488C000F000F0005000500050005000F000500D6
:10489C000F000F0005000F00050005000F000500BC
:1048AC000F000F000F000500050005000F000500AC
:1048BC000F000F000F000F00050005000F000F0088
:1048CC000500050005000500050005000F000F00A0
:1048DC000500050005000F00050005000F000F0086
:1048EC00050005000F000500050005000F000F0076
:1048FC00050005000F000F00050005000F000F005C
:10490C0005000F0005000500050005000F000F0055
:10491C0005000F0005000F00050005000F000F003B
:10492C0005000F000F000500050005000F000F002B
:10493C0005000F000F000F00050005000F000F0011
:10494C000F00050005000500050005000F000F0015
:10495C000F00050005000F00050005000F000F00FB
:10496C000F0005000F000500050005000F000F00EB
:10497C000F0005000F000F00050005000F000F00D1
:10498C000F000F0005000500050005000F000F00CB
:10499C000F000F0005000F00050005000F000F00B1
:1049AC000F000F000F000500050005000F000F00A1
:1049BC000F000F000F000F0005000F000500050091
:1049CC00050005000500050005000F0005000500A9
:1049DC000500050005000F0005000F00050005008F
:1049EC00050005000F00050005000F00050005007F
:1049FC00050005000F000F0005000F000500050065
:104A0C0005000F000500050005000F00050005005E
:104A1C0005000F0005000F0005000F000500050044
:104A2C0005000F000F00050005000F000500050034
:104A3C0005000F000F000F0005000F00050005001A
:104A4C000F0005000500050005000F00050005001E
:104A5C000F00050005000F0005000F000500050004
:104A6C000F0005000F00050005000F0005000500F4
:104A7C000F0005000F000F0005000F0005000500DA
:104A8C000F000F000500050005000F0005000500D4
:104A9C000F000F0005000F0005000F0005000500BA
:104AAC000F000F000F00050005000F0005000500AA
:104ABC000F000F000F000F0005000F0005000F0086
:104ACC00050005000500050005000F0005000F009E
:104ADC000500050005000F0005000F0005000F0084
:104AEC00050005000F00050005000F0005000F0074
:104AFC00050005000F000F0005000F0005000F005A
:104B0C0005000F000500050005000F0005000F0053
:104B1C0005000F0005000F0005000F0005000F0039
:104B2C0005000F000F00050005000F0005000F0029
:104B3C0005000F000F000F0005000F0005000F000F
:104B4C000F0005000500050005000F0005000F0013
:104B5C000F00050005000F0005000F0005000F00F9
:104B6C000F0005000F00050005000F0005000F00E9
:104B7C000F0005000F000F0005000F0005000F00CF
:104B8C000F000F000500050005000F0005000F00C9
:104B9C000F000F0005000F0005000F0005000F00AF
:104BAC000F000F000F00050005000F0005000F009F
:104BBC000F000F000F000F0005000F000F00050085
:104BCC00050005000500050005000F000F0005009D
:104BDC000500050005000F0005000F000F00050083
:104BEC00050005000F00050005000F000F00050073
:104BFC00050005000F000F0005000F000F00050059
:104C0C0005000F000500050005000F000F00050052
:104C1C0005000F0005000F0005000F000F00050038
:104C2C0005000F000F00050005000F000F00050028
:104C3C0005000F000F000F0005000F000F0005000E
:104C4C000F0005000500050005000F000F00050012
:104C5C000F00050005000F0005000F000F000500F8
:104C6C000F0005000F00050005000F000F000500E8
:104C7C000F0005000F000F0005000F000F000500CE
:104C8C000F000F000500050005000F000F000500C8
:104C9C000F000F0005000F0005000F000F000500AE
:104CAC000F000F000F00050005000F000F0005009E
:104CBC000F000F000F000F0005000F000F000F007A
:104CCC00050005000500050005000F000F000F0092
:104CDC000500050005000F0005000F000F000F0078
:104CEC00050005000F00050005000F000F000F0068
:104CFC00050005000F000F0005000F000F000F004E
:104D0C0005000F000500050005000F000F000F0047
:104D1C0005000F0005000F0005000F000F000F002D
:104D2C0005000F000F00050005000F000F000F001D
:104D3C0005000F000F000F0005000F000F000F0003
:104D4C000F0005000500050005000F000F000F0007
:104D5C000F00050005000F0005000F000F000F00ED
:104D6C000F0005000F00050005000F000F000F00DD
:104D7C000F0005000F000F0005000F000F000F00C3
:104D8C000F000F000500050005000F000F000F00BD
:104D9C000F000F0005000F0005000F000F000F00A3
:104DAC000F000F000F00050005000F000F000F0093
:104DBC000F000F000F000F000F000500050005008D
:104DCC0005000500050005000F00050005000500A5
:104DDC000500050005000F000F000500050005008B
:104DEC00050005000F0005000F000500050005007B
:104DFC00050005000F000F000F0005000500050061
:104E0C0005000F00050005000F000500050005005A
:104E1C0005000F0005000F000F0005000500050040
:104E2C0005000F000F0005000F0005000500050030
:104E3C0005000F000F000F000F0005000500050016
:104E4C000F000500050005000F000500050005001A
:104E5C000F00050005000F000F0005000500050000
:104E6C000F0005000F0005000F00050005000500F0
:104E7C000F0005000F000F000F00050005000500D6
:104E8C000F000F00050005000F00050005000500D0
:104E9C000F000F0005000F000F00050005000500B6
:104EAC000F000F000F0005000F00050005000500A6
:104EBC000F000F000F000F000F00050005000F0082
:104ECC0005000500050005000F00050005000F009A
:104EDC000500050005000F000F00050005000F0080
:104EEC00050005000F0005000F00050005000F0070
:104EFC00050005000F000F000F00050005000F0056
:104F0C0005000F00050005000F00050005000F004F
:104F1C0005000F0005000F000F00050005000F0035
:104F2C0005000F000F0005000F00050005000F0025
:104F3C0005000F000F000F000F00050005000F000B
:104F4C000F000500050005000F00050005000F000F
:104F5C000F00050005000F000F00050005000F00F5
:104F6C000F0005000F0005000F00050005000F00E5
:104F7C000F0005000F000F000F00050005000F00CB
:104F8C000F000F00050005000F00050005000F00C5
:104F9C000F000F0005000F000F00050005000F00AB
:104FAC000F000F000F0005000F00050005000F009B
:104FBC000F000F000F000F000F0005000F00050081
:104FCC0005000500050005000F0005000F00050099
:104FDC000500050005000F000F0005000F0005007F
:104FEC00050005000F0005000F0005000F0005006F
:104FFC00050005000F000F000F0005000F00050055
:10500C0005000F00050005000F0005000F0005004E
:10501C0005000F0005000F000F0005000F00050034
:10502C0005000F000F0005000F0005000F00050024
:10503C0005000F000F000F000F0005000F0005000A
:10504C000F000500050005000F0005000F0005000E
:10505C000F00050005000F000F0005000F000500F4
:10506C000F0005000F0005000F0005000F000500E4
:10507C000F0005000F000F000F0005000F000500CA
:10508C000F000F00050005000F0005000F000500C4
:10509C000F000F0005000F000F0005000F000500AA
:1050AC000F000F000F0005000F0005000F0005009A
:1050BC000F000F000F000F000F0005000F000F0076
:1050CC0005000500050005000F0005000F000F008E
:1050DC000500050005000F000F0005000F000F0074
:1050EC00050005000F0005000F0005000F000F0064
:1050FC00050005000F000F000F0005000F000F004A
:10510C0005000F00050005000F0005000F000F0043
:10511C0005000F0005000F000F0005000F000F0029
:10512C0005000F000F0005000F0005000F000F0019
:10513C0005000F000F000F000F0005000F000F00FF
:10514C000F000500050005000F0005000F000F0003
:10515C000F00050005000F000F0005000F000F00E9
:10516C000F0005000F0005000F0005000F000F00D9
:10517C000F0005000F000F000F0005000F000F00BF
:10518C000F000F00050005000F0005000F000F00B9
:10519C000F000F0005000F000F0005000F000F009F
:1051AC000F000F000F0005000F0005000F000F008F
:1051BC000F000F000F000F000F000F00050005007F
:1051CC0005000500050005000F000F000500050097
:1051DC000500050005000F000F000F00050005007D
:1051EC00050005000F0005000F000F00050005006D
:1051FC00050005000F000F000F000F000500050053
:10520C0005000F00050005000F000F00050005004C
:10521C0005000F0005000F000F000F000500050032
:10522C0005000F000F0005000F000F000500050022
:10523C0005000F000F000F000F000F000500050008
:10524C000F000500050005000F000F00050005000C
:10525C000F00050005000F000F000F0005000500F2
:10526C000F0005000F0005000F000F0005000500E2
:10527C000F0005000F000F000F000F0005000500C8
:10528C000F000F00050005000F000F0005000500C2
:10529C000F000F0005000F000F000F0005000500A8
:1052AC000F000F000F0005000F000F000500050098
:1052BC000F000F000F000F000F000F0005000F0074
:1052CC0005000500050005000F000F0005000F008C
:1052DC000500050005000F000F000F0005000F0072
:1052EC00050005000F0005000F000F0005000F0062
:1052FC00050005000F000F000F000F0005000F0048
:10530C0005000F00050005000F000F0005000F0041
:10531C0005000F0005000F000F000F0005000F0027
:10532C0005000F000F0005000F000F0005000F0017
:10533C0005000F000F000F000F000F0005000F00FD
:10534C000F000500050005000F000F0005000F0001
:10535C000F00050005000F000F000F0005000F00E7
:10536C000F0005000F0005000F000F0005000F00D7
:10537C000F0005000F000F000F000F0005000F00BD
:10538C000F000F00050005000F000F0005000F00B7
:10539C000F000F0005000F000F000F0005000F009D
:1053AC000F000F000F0005000F000F0005000F008D
:1053BC000F000F000F000F000F000F000F00050073
:1053CC0005000500050005000F000F000F0005008B
:1053DC000500050005000F000F000F000F00050071
:1053EC00050005000F0005000F000F000F00050061
:1053FC00050005000F000F000F000F000F00050047
:10540C0005000F00050005000F000F000F00050040
:10541C0005000F0005000F000F000F000F00050026
:10542C0005000F000F0005000F000F000F00050016
:10543C0005000F000F000F000F000F000F000500FC
:10544C000F000500050005000F000F000F00050000
:10545C000F00050005000F000F000F000F000500E6
:10546C000F0005000F0005000F000F000F000500D6
:10547C000F0005000F000F000F000F000F000500BC
:10548C000F000F00050005000F000F000F000500B6
:10549C000F000F0005000F000F000F000F0005009C
:1054AC000F000F000F0005000F000F000F0005008C
:1054BC000F000F000F000F000F000F000F000F0068
:1054CC0005000500050005000F000F000F000F0080
:1054DC000500050005000F000F000F000F000F0066
:1054EC00050005000F0005000F000F000F000F0056
:1054FC00050005000F000F000F000F000F000F003C
:10550C0005000F00050005000F000F000F000F0035
:10551C0005000F0005000F000F000F000F000F001B
:10552C0005000F000F0005000F000F000F000F000B
:10553C0005000F000F000F000F000F000F000F00F1
:10554C000F000500050005000F000F000F000F00F5
:10555C000F00050005000F000F000F000F000F00DB
:10556C000F0005000F0005000F000F000F000F00CB
:10557C000F0005000F000F000F000F000F000F00B1
:10558C000F000F00050005000F000F000F000F00AB
:10559C000F000F0005000F000F000F000F000F0091
:1055AC000F000F000F0005000F000F000F000F0081
:1055BC000F000F000F000F000A0000000A0000008F
:1055CC000A0A0A00000A0A0A000A0A0A0A0000006B
:1055DC000A00000A05000A0A00050A00000A000079
:1055EC000A05000A0A00050A00000A05000A0A005A
:1055FC000A0A00050A00000A03000A06000A030052
:04560C001400000086
:08561000E8ABFF7F0100000080
:04561800AD010008D8
:04561C0089010008F8
:105620000024F4001000000001000000140000003D
:10563000140000200000000010020020780200206A
:10564000E002002000000000000000000000000058
:10565000000000000000000000000000000000004A
:10566000000000000000000000000000000000003A
:10567000000000000000000000000000000000002A
:0400000508000C01E2
:00000001FF
